:020000040800F2
:10000000900E0020010100082F1C0008B7180008FE
:100010002D1C000869020008693700080000000074
:10002000000000000000000000000000AD1F0008FC
:10003000D7020008000000002D1F0008F11F000873
:100040001B0100081B0100081B0100081B01000820
:100050001B0100081B0100081B0100081B01000810
:100060001B0100081B0100081B0100081B01000800
:100070001B0100081B0100081B0100081B010008F0
:100080001B0100081B0100081B0100081B010008E0
:10009000B93600081B0100081B0100081B010008FD
:1000A0001B0100081B0100081B0100081B010008C0
:1000B000712000081B0100087D2000081B010008BA
:1000C0001B0100081B0100081B0100081B010008A0
:1000D0001B0100081B0100081B0100081B01000890
:1000E0001B0100081B0100081B010008DFF80CD0F1
:1000F00000F03CF800480047A9370008900E0020A7
:100100000648804706480047FEE7FEE7FEE7FEE7B1
:10011000FEE7FEE7FEE7FEE7FEE7FEE76F200008EA
:10012000ED00000840EA01039B0703D009E008C97D
:10013000121F08C0042AFAD203E011F8013B00F8AC
:10014000013B521EF9D27047D2B201E000F8012BF8
:10015000491EFBD270470022F6E710B513460A4647
:1001600004461946FFF7F0FF204610BD064C074D28
:1001700006E0E06840F0010394E807009847103477
:10018000AC42F6D3FFF7B6FF8C3B0008AC3B00084F
:1001900070B58C1810F8015B15F0070301D110F849
:1001A000013B2A1106D110F8012B03E010F8016B76
:1001B00001F8016B5B1EF9D12B0705D40023521EF9
:1001C0000DD401F8013BFAE710F8013BCB1A921C61
:1001D00003E013F8015B01F8015B521EF9D5A1425F
:1001E000D8D3002070BD0000F0B51C491A481C4A45
:1001F0000B78C45C9CB1012103EB83008518685C1B
:1002000050B1012000EB80061644765C0EB1984296
:100210001ED1401C0528F5DD491C0529EFDD1149DB
:100220000D480B78401DC65CA6B1012101EB810091
:100230008518E85C38B101202F5C0FB1984207D1D6
:10024000401C0528F8DD491C0529EFDD16B10CB16D
:100250000020F0BD0120F0BD2D000020670000202F
:100260001802002066000020FEE7002070470020F2
:10027000704700207047000070B511490320104AF4
:10028000C96827320870012100205054491CC9B2A6
:100290000729FAD90A4C002115340A4B651D605410
:1002A00001EB8106685400221E44B054521CD2B2A5
:1002B000042AFAD9491CC9B20429F0D970BD00003A
:1002C00018000020180200200122835C8B54521C6D
:1002D000072AFADD7047704772B6FEE700B504489A
:1002E00000F008F802485DF804EB083000F002B8AE
:1002F0000800002010B50E4942688A4201D102214F
:1003000000E003211268526A93B203804488094ACC
:10031000A34202D14FF0000305E002D94FF0FF03E2
:1003200001E04FF0010353540188418010BD0000EB
:10033000340200200000002070B5044600F008F9E7
:100340000546601C02D004480078044400F000F91F
:10035000401BA042FAD370BD300100202DE9F84FB8
:10036000DFF8B891002409F1040A0AF1040B2346CE
:100370000F270BF1040EC9E00125A5402A40AA422F
:100380007DD1674ED1F804C0ACEB0608B44532D03D
:1003900014DCBCF1030F3AD009DCBCF1000F2AD009
:1003A000BCF1010F1CD0BCF1020F31D11DE0BCF13A
:1003B000110F17D0BCF1120F2AD119E0B8F5881F20
:1003C00019D006DCB8F5803F15D0B8F5801F1FD1D5
:1003D00011E0B8F5001F0ED0B8F5041F18D10AE0DF
:1003E000CB6815E0CB681B1D12E0CB6808330FE02B
:1003F000CB680C330CE08B682BB1012B4FF008035A
:1004000003D0456104E0042302E0056100E000231D
:10041000FF2A01D8064601E000F104064FEA8405F0
:1004200001D9A5F12005D6F8008007FA05FC28EAD5
:100430000C0803FA05F548EA0508C6F800804D687F
:10044000ED0062D5374DAE6946F00106AE61AD698B
:1004500024F0030605F001050095334D06EB050C6D
:10046000DCF80850A607360F07FA06F825EA080553
:10047000DFF8B880404503D14FF0000817E044E0B2
:10048000DFF8AC80404502D14FF001080FE0DFF803
:10049000A480404502D14FF0020808E0DFF89880C0
:1004A000404502D14FF0030801E04FF0040808FA7C
:1004B00006F848EA0508CCF808804D68D9F80060CD
:1004C000ED034D4601D5164300E096432E604D687E
:1004D000DAF80060AD03554601D5164300E09643B7
:1004E0002E604D68DBF80060ED025D4601D51643D5
:1004F00000E096432E604D68DEF80060AD02754660
:1005000001D5164300E096432E60641C0D682A4610
:10051000E5407FF431AFBDE8F88F000000040140F2
:1005200000001110001002400000014000080140CE
:10053000000C014000100140001401408068084098
:1005400000D0012070470AB1016170470904FBE740
:10055000014880687047000030010020024881682F
:10056000027811448160704730010020074810B5BF
:10057000016841F010010160032000F075F80020CF
:1005800000F006F800F024F8002010BD0020024022
:1005900070B50D4D04464FF47A712878B1FBF0F038
:1005A0000A490968B1FBF0F000F080FF48B9102C4F
:1005B00007D200222146501E00F036F800206C6061
:1005C00070BD012070BD0000300100203C01002002
:1005D0000C4808B5816941F001018161816901F030
:1005E00001010091C16941F08051C161C06900F011
:1005F000805000900448416821F0E06141F00071B2
:10060000416008BD0010024000000140002809DBE5
:1006100000F01F02012191404009800000F1E0201C
:10062000C0F8001170470000F0B40E4B1B680C4678
:10063000C3F30223C3F10705042D00D90425191DB6
:10064000072901D2002300E0DB1E012606FA05F18E
:10065000491E214099409E40761E16403143F0BC11
:1006600003F083B80CED00E0064900F007020868CB
:100670004FF6FF03184040EA0220034A1043086087
:10068000704700000CED00E00000FA0510B50C0604
:1006900007D501F0070101EB810100EBC100283013
:1006A00005E001EB810100EBC10000F5B47099B2E7
:1006B00032B1012202730181190C4181002010BD69
:1006C00000220273C180F9E7704701EB810200EB61
:1006D000C202D0F8E802D26B01F0C9BF01EB81027F
:1006E00000EBC202D0F8E802D2F87C2102F022B876
:1006F00070B504460B0601F0070000EB800104EB27
:10070000C1014FF001024FF0000503D581F8292007
:10071000283103E081F8695101F5B471087094F84B
:10072000A802012808D084F8A822206802F062FC00
:1007300084F8A852002070BD022070BD70B5044638
:1007400001F00F006268904201D9012070BD0B06D4
:1007500001F0070000EB800104EBC1014FF0010242
:100760004FF0000503D581F82920283103E081F8F6
:10077000695101F5B4718D70087094F8A8020128D0
:1007800008D084F8A822206802F0D1FC84F8A8528E
:10079000002070BD022070BD2DE9F05F04685FEAA3
:1007A000424C0B788D69B4F850C04FF000064BF600
:1007B0008F7948F2800A48F68F7B48F2C00E4FF4DA
:1007C00080672AD54FF0020808EBC308C44407EB42
:1007D0004C07E45BC4F30904A54203D32D1B8D61D0
:1007E00001D00BE08E61066836F8235005EA090552
:1007F00085F4005545EA0A0526F82350520609D526
:100800000D78036833F8252002EA0B0242EA0E0253
:1008100023F8252084B30A8929E04FF0060808EB65
:10082000C308C44407EB4C07E45BC4F30904A542C6
:1008300003D32D1B8D6101D00BE08E61066836F865
:10084000235005EA090585F4005545EA0A0526F80E
:100850002350520609D40B78056835F8232002EAA4
:100860000B0242EA0E0225F823202CB14A8949697D
:100870000068234602F02AFF2046BDE8F09F2DE9DC
:10088000F05F05460C4600685FEA426C1646227827
:10089000A369B0F850C04FF0000148F68F774CF2D2
:1008A00080094FF6FF7B4FF4004E4FF4806A6CD501
:1008B0004FF0020808EBC208E0440AEB480C30F89D
:1008C0000C00C0F30900834211D91B1AA3610FD099
:1008D000730407D52E6836F822303B4043EA0903FB
:1008E00026F8223094F82420012A08D0C6E0A1611D
:1008F00011462846FFF7E9FE70046CD4BEE0626939
:1009000002446261E2690244E2612369226A9A4216
:1009100002D31846111A03E084F824100AB11046D5
:100920002162617811B1012923D02BE02968B1F847
:1009300050201144227801EB021101F2044148B128
:100940003E280FD84208C30700D0521C0BEA82226F
:100950000A8017E00A8822F4F8420A800A8842F4E2
:100960000042F5E74209C30600D1521E4EEA822238
:10097000EEE72968B1F850201144227801EB02110A
:10098000A1F8040483B2228974E04FF0060808EB52
:10099000C208E0440AEB480C30F80C00C0F3090030
:1009A000834211D31B1AA3610FD0730407D42E689E
:1009B00036F822303B4043EA090326F8223094F807
:1009C0002420012A11D059E0A16111462846FFF7E1
:1009D0007CFE700452D42278296831F82200384015
:1009E00040EA090021F8220048E06269024462619D
:1009F000E2690244E2612369226A9A4203D31846FB
:100A0000111A216204E00AB11046216284F8241010
:100A10006278296812B1012A22D029E0B1F8502069
:100A20001144227801EB021101F20C4148B13E2839
:100A30000FD84208C30700D0521C0BEA82220A805A
:100A400016E00A8822F4F8420A800A8842F400423A
:100A5000F5E74209C30600D1521E4EEA8222EEE7B4
:100A6000B1F850201144227801EB0211A1F80C04D6
:100A7000628983B26169286802F046FE227829689B
:100A800031F8220048F6BF73184080F0300048F279
:100A90008003184321F822000020BDE8F09F2DE9D3
:100AA000F04104460F0601F0070000EB800104EB63
:100AB000C1014FF001064FF0000503D581F8296010
:100AC000283103E081F8695101F5B47108700A61B9
:100AD000CB704A7802B1C881022B00D10D7194F815
:100AE000A802012809D084F8A862206802F028F939
:100AF000284684F8A852BDE8F0810220FBE770B5D3
:100B00000C4601F0070505EB850100EBC101C1E9C9
:100B10005F230022C1F8842181F8692181F868519E
:100B200001F5B4716207006802F056FB002070BD49
:100B300070B504460D4601F007006168884201D98E
:100B4000012070BD29064FF000064FF0010207D5C5
:100B500000EB800104EBC10181F82920283107E076
:100B600005EB850104EBC10181F8696101F5B47100
:100B70008A70087094F8A802012807D084F8A82287
:100B8000206802F010FB680702D006E0022070BD6A
:100B900004F52C71206802F0C8FA84F8A8620020DD
:100BA00070BD70B50C4601F0070505EB850100EB43
:100BB000C101C1E90F23012281F84C208B6400237D
:100BC0004B6481F8292001F8285F6207006802F071
:100BD00003FB002070BD1FB50446006802F072FDE3
:100BE000000402D5204601F023F8206802F06AFDD7
:100BF00040050CD5206830F8441F21F48061018045
:100C0000204600F01FF90021204600F036F9206848
:100C100002F058FD400405D5206830F8441F21F447
:100C200080410180206802F04DFD800405D52068D8
:100C300030F8441F21F400510180206802F042FD89
:100C4000C00414D5206830F8401F21F00401018051
:100C5000206830F8401F21F008010180204600F094
:100C600004F9206830F8441F21F480510180206885
:100C700002F028FD00053ED522680020694632F8C2
:100C8000203021F81030401CC0B20828F7D332F8C9
:100C9000400F40F001001080206830F8402F22F013
:100CA000010202802068B0F844205205FBD530F8DC
:100CB000442F22F4806202800020236831F8102043
:100CC00023F82020401CC0B20828F6D3206830F852
:100CD000401F41F008010180206830F8441F21F4D2
:100CE00000610180206830F8401F41F0040101805C
:100CF000204600F0F7F8206802F0E4FC800508D5F3
:100D0000206830F8441F21F400710180204600F073
:100D1000B0F8206802F0D6FCC00505D5206830F890
:100D2000441F21F4807101801FBD00002DE9F041B6
:100D300086B0040004D094F8A902002520B108E090
:100D4000012006B0BDE8F08184F8A852204600F0EA
:100D50005BF8032084F8A902206802F0DFF904F1AF
:100D60001001142288466846FFF7DCF994E80F006A
:100D700002F012F90226D0BB0021206802F0BCFC70
:100D8000002001270FE000BF00EB800104EBC10150
:100D900081F8297001F8280FC881CD700D614D616F
:100DA000401CC0B28D6161688142EDD8002011E025
:100DB00000EB800104EBC10181F8695181F8680101
:100DC00081F86B51C1F87851C1F87C51401CC0B218
:100DD000C1F8805161688142EAD8142241466846D0
:100DE000FFF7A0F994E80F0002F08FF910B184F832
:100DF000A962A5E784F8245084F8A972206802F05B
:100E000082F900209DE7000008B500680B49884280
:100E100012D10B48C16941F40001C161C0690022CF
:100E200000F40000009011461420FFF7FDFBBDE820
:100E300008401420FFF7EABB08BD0000005C00403A
:100E40000010024070B5044680680125022801D0D8
:100E5000FFF742FA2946D4F8E80201F048FDD4F839
:100E6000E802BDE8704001F004BDD0F8E80201F0EE
:100E700028BDD0F8E80201F02EBD10B5044690F868
:100E8000A80201280BD0012084F8A80284F82410BD
:100E9000206802F033FC002084F8A80210BD022074
:100EA00010BDD0F8E82200F52C71104601F02BBDE2
:100EB00010B5044690F8A802012810D0012084F84B
:100EC000A802206802F0EFFB01212046FFF7FCFB9F
:100ED000206802F016F9002084F8A80210BD022054
:100EE00010BD000010B50446D0F8E80201F04AFD3C
:100EF000A069002804D00348016841F006010160A0
:100F000010BD000010ED00E02DE9F8430546007823
:100F1000354CC00754D0E0690026C00008D4E06911
:100F200040F08050E061E069012600F080500090C0
:100F30002E480168C90512D40168804641F48071C9
:100F40000160FFF705FB074605E000BFFFF700FB68
:100F5000C01B642823D8D8F80000C005F6D5206A45
:100F600010F4407021D0A98801F4407181421CD056
:100F7000206A1F49012220F440700A6000220A60A2
:100F80002062C00711D0FFF7E3FA074641F2883824
:100F900008E000BFFFF7DCFAC11B414502D903207E
:100FA000BDE8F883206A8007F4D5206A696820F4D8
:100FB0004070084320621EB1E06920F08050E0617B
:100FC0002878800705D56068A96820F44040084368
:100FD00060602878C00605D56068E96820F4800064
:100FE000084360600020DBE7001002400070004012
:100FF000400442422DE9F0470F46050061D0434EC0
:10100000306800F00700B84209D2306820F00700CD
:1010100038433060306800F00700B84251D128688A
:101020003B4C810712D5400703D5606840F4E0606F
:1010300060602878000703D5606840F46050606005
:101040006068A96820F0F000084360602878C00755
:1010500028D06868012810D02168022810D089079C
:1010600000292EDA616821F0030101436160FFF776
:101070006FFA804641F288390DE021688903EFE775
:101080008901EDE7FFF764FAA0EB0801494502D9B1
:101090000320BDE8F0876068696800F00C00B0EBE1
:1010A000810FEFD1306800F00700B8420BD93068EB
:1010B00020F0070038433060306800F00700B84285
:1010C00001D00120E5E72878400705D56068E96888
:1010D00020F4E060084360602878000706D5606867
:1010E000296920F4605040EAC100606000F018F8FF
:1010F0006168084AC1F30311515CC84006490860A1
:1011000006480068FFF744FA0020C2E700200240CA
:10111000001002407C3B00083C010020340100200C
:1011200012A185B00FC98DE80F0014A0144A006801
:1011300004905168134801F00C03042B10D0082BC5
:101140000ED1C1F38343C9031DF803000AD55168CA
:1011500004AAC1F34041515C0A4A5043B0FBF1F08C
:1011600005B0704708494843FAE700000203040548
:10117000060708090A0B0C0D0E0F101001020000E3
:101180000010024000127A0000093D002DE9F84FDE
:10119000040070D02078C04DC00749D06868C0F303
:1011A0008100012807D06868C0F38100022809D1B6
:1011B0006868C00306D52868800339D560680028B0
:1011C000E7D035E06068B0F5803F0BD010B1B0F5E6
:1011D000A02F11D0286820F480302860286820F4DF
:1011E000802002E0286840F480302860606890B178
:1011F000FFF7AEF906460AE0286840F48020286030
:10120000F0E700BFFFF7A4F9801B642873D82868B3
:101210008003F7D50CE0FFF79BF9064605E000BF19
:10122000FFF796F9801B6428F0D828688003F7D46C
:1012300020789A4E80074FF001094FF0000839D509
:10124000686810F00C0F07D06868C0F381000228AE
:1012500009D16868C00306D42868800714D52069BE
:10126000012808D110E02069B0B1C6F80090FFF75E
:101270006FF9074605E00AE1FFF76AF9C01B02288B
:10128000C4D828688007F7D52868616920F0F8007D
:1012900040EAC10028600DE0C6F80080FFF758F969
:1012A000074604E0FFF754F9C01B022823D828683A
:1012B0008007F7D4207800072CD57948A169D9B1E7
:1012C000C0F80090FFF744F9074604E0FFF740F943
:1012D000C01B02280FD8686A8007F7D571484FF401
:1012E000FA510068B0FBF1F0009000BF0098411E79
:1012F0000091FAD20EE080E0C0F80080FFF728F9F4
:10130000074604E0FFF724F9C01B022875D8686A75
:101310008007F7D42078400760D5E8690027C0002F
:1013200008D4E86940F08050E861E869012700F0DE
:10133000805000905C480168C90513D40168834659
:1013400041F480710160FFF703F9824606E000BFB7
:10135000FFF7FEF8A0EB0A0064284ED8DBF8000087
:10136000C005F5D5E06801280AD008B1052813D0DA
:10137000286A20F001002862286A20F0040002E0B8
:10138000286A40F001002862E06841F2883B98B189
:10139000FFF7DEF882460BE0286A40F0040028627E
:1013A000EEE700BFFFF7D4F8A0EB0A0159455AD881
:1013B000286A8007F6D50CE0FFF7CAF8824605E0F8
:1013C000FFF7C6F8A0EB0A0159454CD8286A8007F8
:1013D000F6D41FB1E86920F08050E861E06988B375
:1013E0006968C1F38101022944D00228C6F86080EF
:1013F00004D0FFF7ADF8044638E034E0FFF7A8F872
:10140000074604E0FFF7A4F8C01B02282BD8286881
:101410008001F7D4206AB0F5803F05D16868A168E3
:1014200020F4003008436860D4E908010843696883
:1014300021F4741108436860C6F86090FFF788F8DB
:10144000044606E025E000BFFFF782F8001B0228F3
:1014500009D828688001F7D51BE000BFFFF778F8AE
:10146000001B022802D90320BDE8F88F28688001FC
:10147000F4D40EE00128F7D06868226A00F48031C5
:10148000914204D1616A00F47010884201D00120B9
:10149000EAE70020E8E700000010024000004242B6
:1014A000800442423C0100200070004010B5401E04
:1014B000B0F1807F01D3012010BD4FF0E0246061C6
:1014C0000F21601702F051F90020A0610720206170
:1014D000002010BD7047704770B590F83C20012A7D
:1014E00026D0012480F83C40022280F83D20036889
:1014F0005A689D6822F070060A6832435A600D4BA4
:1015000002689A4208D0B2F1804F05D00A4B9A4245
:1015100002D00A4B9A4204D1496825F0800319434E
:10152000916080F83D40002180F83C10084670BD75
:10153000022070BD002C0140000400400008004063
:101540002DE9F0410D46040003D094F83D0018B198
:1015500008E00120BDE8F081002084F83C0020462E
:1015600000F040F8022084F83D002068816844F2D1
:10157000070291438160211D206800F085FD2268EB
:1015800090689169166A2B68AF69034340F2033093
:10159000814341EA0721A868EF6908434FF6FC41FF
:1015A0008843E96840EA0720014328692F6A00015F
:1015B00040EA0730084369686D6926F0220646EA6A
:1015C0000515294393602268906154F8460B016227
:1015D000012004F81F09E0752076E0762077A075D9
:1015E0000020B7E700B585B000210091019102917C
:1015F000039101682248B1F1804F23D0214A9142E2
:101600001ED1C16941F00401C161C16901F0040149
:101610000491816941F0080181618069694600F0A7
:1016200008000490C02000901748FEF797FE0022A3
:1016300009211E20FEF7F8FF5FF01E00FEF7E6FF0F
:1016400005B000BDC16941F00101C161C16901F08E
:1016500001010491816941F0040181618069694659
:1016600000F004000490032000900848FEF776FE86
:10167000002209211C20FEF7D7FF1C20DEE7000016
:101680000010024000080040000C0140000801402A
:1016900070B590F83E60044690F83F5090F84230A4
:1016A00090F84320022021B1042914D0012E25D125
:1016B0001EE0012E22D1012B20D184F83E0084F8B7
:1016C000420001220021206800F014FD2068C1685A
:1016D00041F002012FE0012D10D1012A0ED184F832
:1016E0003F0084F843000421206800F003FD1EE061
:1016F000012D03D1012B01D1012A01D0012070BDA0
:1017000084F83E0084F83F0084F8420084F84300E7
:1017100001220021206800F0EDFC01220421206854
:1017200000F0E8FC2068C16841F00201C160206857
:10173000C16841F00401C1602068016841F0010105
:101740000160002070BD704770B5044600680169F3
:101750004FF00005C943890715D4C168C9438907FB
:1017600011D4E91E0161012020772068806980077B
:10177000204602D0FFF7E7FF04E000F098F820468B
:1017800000F096F8257720680169C943490717D406
:10179000C168C943490713D46FF0040101610220F5
:1017A00020772068806910F4407F204602D0FFF740
:1017B000CAFF04E000F07BF8204600F079F82577B6
:1017C00020680169C943090716D4C168C9430907DC
:1017D00012D46FF008010161042020772068C069ED
:1017E0008007204602D0FFF7AEFF04E000F05FF86C
:1017F000204600F05DF8257720680169C943C906D5
:1018000017D4C168C943C90613D46FF01001016130
:10181000082020772068C06910F4407F204602D05D
:10182000FFF791FF04E000F042F8204600F040F896
:10183000257720680169C943C90708D1C168C94330
:10184000C90704D1891E0161204600F032F82068E2
:101850000169C943090609D4C168C943090605D409
:101860006FF0800101612046FFF734FE20680169B6
:10187000C943490609D4C168C943490605D46FF074
:1018800040010161204600F015F820680169C94354
:1018900089060BD4C168C943890607D46FF02001BB
:1018A00001612046BDE87040FFF715BE70BD70476E
:1018B000704770477047FEE7F0B500230A243025D3
:1018C00037261F4611E000BFB4EB107F02D905EBAD
:1018D000107C01E006EB107C01F813C001EB430C17
:1018E00000015B1C8CF80170DBB29342ECD3F0BDBD
:1018F0000121425C0AB100207047491CC9B2072986
:10190000F7D9012070470000074A064905481278B8
:1019100017394078895C084201D0002070470120C7
:10192000704700003F00002067000020064A05497C
:10193000044812780F394078895C084000D00120B3
:101940007047000037000020670000200C4910B5E8
:101950000A4B09780B4C03F1080201EB81010A44A0
:1019600021780220515C1A5C8A4201D1002010BD0E
:10197000401C0728F7DD012010BD00003F000020BB
:1019800066000020670000200C4910B50A4B09785A
:101990000B4C03F1100201EB81010A442178022073
:1019A000515C1A5C8A4201D1012010BD401C0728FD
:1019B000F7DD002010BD0000370000206600002089
:1019C0006700002070B5174901F10800FEF77CFCA4
:1019D00014480830FFF78CFF124C00251F3C18B943
:1019E00000F0E6FAA06805700820FEF7A5FC0D4897
:1019F0000830FFF77DFF002812D0A068007800288B
:101A00000ED100F0D5FAA06801210170617801B112
:101A10000570BDE87040002220210348FEF793BD09
:101A200070BD000037000020000801402DE9F041A2
:101A300086B0002430480094019402940394816994
:101A400041F010018161816901F010010491816907
:101A500041F020018161816901F0200104918169D7
:101A600041F004018161816901F0040104918169FF
:101A700041F0080181618069204F00F0080040F2C8
:101A80002C450490002229463846FEF75CFDDFF81D
:101A90007080002220214046FEF755FD7814CDE9E4
:101AA0000004694617480294FEF758FC0126CDE968
:101AB0000056022569463846CDE90245FEF74EFC40
:101AC0004FF483608DE8310069464046FEF746FCDE
:101AD000E8018DE8310069463846FEF73FFC2020DA
:101AE000CDE9000669464046CDE90245FEF736FCE1
:101AF00006B0BDE8F081000000100240000801407F
:101B0000000C01400010014010B58CB02421684643
:101B1000FEF721FB0024154809944FF080410A94F8
:101B2000C0E90014FF21C0E9024104618461012081
:101B3000CDE90004CDE902040F210491CDE905406F
:101B4000CDE9074169460948FFF7FAFC08B172B6CA
:101B5000FEE7099409A905480A94FFF7BDFC00288F
:101B600001D072B6FEE70CB010BD000034020020B8
:101B700010B58CB024216846FEF7EDFA0024154814
:101B8000099413490A94C0E90014FF21C0E90241F5
:101B9000046184610120CDE90004CDE902040F2134
:101BA0000491CDE90540CDE9074169460948FFF7B1
:101BB000C7FC08B172B6FEE7099409A905480A9462
:101BC000FFF78AFC002801D072B6FEE70CB010BD0A
:101BD000000800407C02002010B500220F49104888
:101BE00000F01EFD08B1FEF777FB0E490C4800F02F
:101BF000EFFE08B1FEF770FB0B49094800F00DFB42
:101C000008B1FEF769FB064800F038FF002803D052
:101C1000BDE81040FEF760BB10BD0000680000206A
:101C2000C40200204401002020010020FEE7FEE75E
:101C30002DE9F84F044640F68F7B48F60F7A4FF0B7
:101C400002094FF4806868E1B0F8441011F00F0603
:101C500038D030F8267039047ED530F8261001EAE5
:101C60000B0141F0800120F8261006EB860004EB02
:101C7000C00595F8740105F5B47500286DD0E878B5
:101C800002286BD02A78216831F8220048F68F7339
:101C9000184048F2C003184321F822002978206830
:101CA00030F82120B0F8503052047DD509EBC10145
:101CB0005A1808EB4201415A8905890D009174D0E8
:101CC0002A89D2E0C9062DD4018801EA0A0141F42B
:101CD00000410180206804F12805B0F850302A78CE
:101CE00009EBC2015A1808EB4201405AC0F309003F
:101CF0006064E16B0844E06300212046FEF7E5FCE8
:101D000094F8240000289ED0A86900289BD194F85C
:101D1000240040F080012068A0F84C10002084F8D6
:101D20002400FAE0018804F5B4750A0521D5B0F85D
:101D300050302A78062101EBC2015A1808EB420103
:101D4000405A04F52C71C0F30903EB61EA8820685E
:101D500001F0BCFC216802E0A2E062E072E00888C9
:101D600000EA0B0040F0800008802046FFF799F859
:101D7000D3E00904D5D5018801EA0B0141F08001C7
:101D800001802068B0F850202B78062101EBC301B8
:101D90000A4408EB4201405A83059B0DEB6110D0C9
:101DA000696971B1EA8801E053E051E0206801F00F
:101DB0008DFCE96968690844686100212046FEF7E6
:101DC0008DFC2068B0F850100844296900F20C40DE
:101DD00051B13E2910D84A08C90700D0521C4FF60D
:101DE000FF7101EA82210FE0018821F4F8410180AE
:101DF000018841F4004107E04A09C90600D1521E9A
:101E00004FF4004141EA82210180206801884BF6AD
:101E10008F72114081F4405148F2800211430180D9
:101E20007BE02068B0F850102A78062303EBC2024A
:101E30000A4408EB4201415A8905890D009118D0E6
:101E4000EA8812E03A4629462046FEF7A5FC0090B3
:101E50000FE0062202EBC1015A1808EB4201415A79
:101E60008905890D009104D06A896969009B01F098
:101E70002DFCE96900980844E86169690098084404
:101E80006861A86918B129690098814204D9297844
:101E90002046FEF723FC03E02946206801F09CF968
:101EA00038063AD5226806EB860004EBC00132F80A
:101EB000260000EA0A0040F4004022F8260091F8CB
:101EC0002B002831022801D1F80522D42268B2F86B
:101ED00050300D7809EBC500034408EB4300105A5D
:101EE0008A69C0F3090082420CD9121A8A610BD0A8
:101EF0004A6902444A61CA691044C861206801F015
:101F00006BF90AE000208861E9B22046FEF7DDFBAC
:101F100003E03A462046FEF7B2FC2068B0F84410D1
:101F200009043FF591AE0020BDE8F88F704700B579
:101F3000FFF7EAFC002807D0FEF756F9002803D087
:101F40005DF804EB01F02AB800BD0000084800B5B8
:101F5000007808280BD8FFF7F9FC002807D0FEF717
:101F600043F9002803D05DF804EB01F027B800BD69
:101F70001800002000B5FFF7D9FC002807D0FEF7B5
:101F800033F9002803D05DF804EB01F007B800BD79
:101F900000B5FFF7F9FC002807D0FEF725F9002867
:101FA00003D05DF804EB01F009B800BD70470000F4
:101FB00010B509220449054800F037F902492739CC
:101FC0004968087010BD00003F000020C4020020D6
:101FD00005220249024800F028B900000000002054
:101FE000C402002001494870704700000000002032
:101FF000FEF7B4BA30B593B028216846FEF7ABF8C7
:1020000014210AA8FEF7A7F800240F941094119445
:1020100001204FF4A02112948DE8130004900225B2
:102020000004CDE907504FF4E01009906846FFF72F
:10203000ADF808B172B6FEE70F20CDE90A054FF4FE
:102040008060CDE90C4002210AA80E94FEF7D2FF71
:1020500008B172B6FEE710200F9012940FA8FEF799
:1020600053FF002801D072B6FEE713B030BD7047B1
:102070000148FFF769BB0000340200200148FFF768
:1020800063BB00007C020020F0B50268164B174CC1
:10209000174D4FF08047984205D0B84203D0A04278
:1020A00001D0A84203D122F070064A683243984218
:1020B00005D0B84203D0A04201D0A84203D122F4F7
:1020C0004074CA6822434C6922F0800222430260B5
:1020D0008A68C2620A688262984201D10969016312
:1020E00001214161F0BD0000002C014000040040CE
:1020F0000008004010B501F01F030121046A994057
:102100008C430462016A9A401143016210BDD0F809
:10211000B802002101750846704770B50546D0F831
:10212000B842D5F8BC226178D26820789047022363
:1021300022460121284600F093FB002070BD70B5B7
:102140000446812100F08AFA002501212046E5623B
:1021500000F084FAC4F86C51D4F8B80248B1D4F84D
:10216000BC0204F52E7480688047206800F0E3FD0F
:102170002560002070BD10B5D0F8B8422169012952
:1021800008D1D0F8BC0223786178C268184690471D
:1021900000202061002010BD0A2101800048704706
:1021A0000C02002029210180004870477C0100209A
:1021B0002921018000487047A801002029210180C1
:1021C00000487047D401002070B504460026022361
:1021D0000322812100F038FB012502230322294636
:1021E0002046E56200F030FB1820C4F86C5100F086
:1021F000A3FDC4F8B80270B1054600202875D4F8D4
:10220000BC024068804702232A460121204600F094
:1022100027FB304670BD0126FBE70246022000295D
:1022200002D00020C2F8BC12704710B5134690F8D7
:102230009C42D0F8B822032C09D1147D0CB10120A6
:1022400010BD012414750A46812100F0A4FB002072
:1022500010BD0000F8B50022D0F8B832ADF800206B
:102260000E781546144616F0600621D0202E55D162
:102270004A78921E0A2A51D2DFE802F00F08505025
:10228000505050130B05887858604AE00122191D00
:1022900035E04888000A986043E0012203F1080114
:1022A0002DE001221A61CA88194600F063F838E06F
:1022B0004E7836B1062E0BD00A2E23D00B2E2DD100
:1022C00028E090F89C22032A28D10222694616E0D1
:1022D0004B882226B6EB132F07D1CA88652A00D96E
:1022E0006522D0F8BC120D6808E02126B6EB132F4A
:1022F00004D1CA880D4D092A00D90922294600F0C7
:1023000053F80EE090F89C22032A07D1012203F132
:102310000C01F4E790F89C22032A04D000F01FF887
:1023200002242046F8BD8878D860FAE70002002031
:1023300010B5D0F8B42252689047002010BD134663
:1023400010B50A46002100F08BFA002010BD13469C
:1023500010B50A46002100F01EFB002010BD10B58C
:102360000446802100F0FCFA2046BDE81040002120
:1023700000F0F6BA10B50323C0F85C21C0F894321F
:10238000C0F8602113460A46002100F069FA0020D7
:1023900010BD10B505210023C0F894121A46194645
:1023A00000F05EFA002010BD10B50223C261C0F833
:1023B0009432026213460A46002100F0ECFA002033
:1023C00010BD10B504210023C0F894121A46194616
:1023D00000F0E1FA002010BD10B50A46024903A042
:1023E00000F0EEF8004810BD8805002043757374B6
:1023F0006F6D2048494420436F6E66696700000096
:1024000012200880004870478800002010B50A4656
:10241000024903A000F0D4F8004810BD8805002050
:10242000437573746F6D2048494420496E7465721A
:102430006661636500000000042008800048704762
:102440008400002010B50A46024903A000F0B8F845
:10245000004810BD8805002053544D6963726F65B4
:102460006C656374726F6E696373000010B50A4621
:10247000024903A000F0A4F8004810BD8805002020
:1024800053544D333220437573746F6D2048756D0E
:10249000616E20696E74657266616365000000009C
:1024A00010B51A2008800A480168001D0468001D44
:1024B0000068081809D008220649FFF7FDF9054908
:1024C000042210312046FFF7F7F90248801E10BDA4
:1024D000E8F7FF1F9E000020F8B504460020ADF885
:1024E000000048880D46010A082948D2DFE801F0BB
:1024F0004704091747473C45D4F8B012207C0A68C6
:1025000019E0207C02260028D4F8B40205D0C16A64
:1025100068468847014646703EE0816AF8E7C0B2E7
:1025200006282CD2DFE800F0030A1014181CD4F897
:10253000B002426805E0694690471CE0D4F8B0025A
:102540008268E2B1207CF6E7D4F8B002C268F8E70E
:10255000D4F8B0020269F4E7D4F8B0024269F0E7B7
:10256000D4F8B0028269ECE7207C40B9D4F8B40218
:10257000416B6846884701460EE0207C20B1294621
:102580002046FFF7ECFEF8BDD4F8B402016B6846B4
:102590008847014607204870BDF8000048B1EA8826
:1025A00052B1824200D90246ADF800202046FFF722
:1025B000FBFEE8880028E6D12046FFF702FFF8BDC1
:1025C00070B5002300281ED00446002502E06D1CD3
:1025D000EDB2641C2678002EF9D1022404EB4504E8
:1025E00014801278CA545B1C0322CA5400245B1C5A
:1025F00006E0CA545B1CDAB28C54521CD3B2401CA5
:102600000278002AF5D170BD01004FF0000004D01F
:10261000012901D0022901D0022070470120704712
:1026200010B580B1D0F8B43213B10023C0F8B43281
:1026300009B1C0F8B012012180F89C12027000F0BC
:10264000BBF8002010BD022010BD10B5D0F8C002AC
:10265000FEF774F8BDE81040FFF7D6BF10B5D0F80C
:10266000C002FEF745F8BDE81040FFF7CDBF2DE9E9
:10267000F0411746044651B1D4F8B40242691AB188
:1026800094F89C02032851D00220BDE8F081D4F8D0
:102690009432002504F11400022B03D0042B3AD00D
:1026A000C3B33CE0D0E903639E4207D9F11AC1608D
:1026B0008AB239462046FFF74AFE12E08068B0FB36
:1026C000F3F103FB110199B9984211D3D4F8981290
:1026D00088420DD2002211462046FFF738FEC4F88A
:1026E000985200231A461946204600F0B9F816E021
:1026F000D4F8B402C16829B194F89C02032801D12E
:10270000204688478021204600F02AF92046FFF71E
:1027100040FE04E0FFE78021204600F021F994F814
:10272000A002012804D184F8A05201E0204690477D
:102730000020AAE770B51546044649B1D4F8B402A2
:1027400082691AB194F89C02032830D0022070BD2F
:10275000D4F8941204F5AA70032902D005291ED0DA
:1027600027E0D0E903218A420BD9531AC3600846F7
:10277000834200D303469AB229462046FFF7DFFD85
:1027800017E0D4F8B402016929B194F89C02032837
:1027900001D1204688472046FFF713FE09E00020BC
:1027A0000146C4F89402204600F0DAF801E0204621
:1027B0009047002070BD000010B519490446C1F8CB
:1027C000E802C0F8C01217480860082048600220DC
:1027D000886000208861C86108620846FEF7A6FA92
:1027E00008B1FDF779FD0022D4F8C0021823114684
:1027F00004F53074FDF74AFF582300228021206839
:10280000FDF744FF9823002281212068FDF73EFF59
:10281000D823002201212068FDF738FF002010BDD9
:10282000A4070020005C00400A0601F07F01D0F8F8
:10283000C00201EB810100EBC10002D590F82A0033
:10284000704790F86A01704710B51C461346D0F8DF
:10285000C0022246FEF723F9BDE81040FFF7D4BEC0
:1028600010B5D0F8C002FEF74AF9BDE81040FFF7F6
:10287000CBBE70B50022044640231146FFF7E4FFAB
:1028800040260125C4F86461334600228021204699
:10289000C4F85851FFF7D8FF6662A56184F89C52CE
:1028A0000020C4F894026060C4F8A402D4F8B8020E
:1028B00028B1D4F8B4020021426820469047002095
:1028C00070BD90F89C12042903D190F89D1280F8F5
:1028D0009C120020704710B590F89C12032904D177
:1028E000D0F8B412C96901B18847002010BD017445
:1028F0000020704710B5D0F8C002FEF7BEFABDE860
:102900001040FFF781BE70B5044600F52A700546F9
:1029100000F04AF80120C4F89402B4F8AE02C4F8FA
:10292000980294F8A80210F01F010AD001290DD0D6
:10293000022910D000F08001204600F011F800209C
:1029400070BD2946204600F09EF8F8E7294620464B
:1029500000F0CAF9F3E72946204600F01DF9EEE73A
:1029600010B5D0F8C002FEF7E3F8BDE81040FFF75D
:102970004BBE10B5D0F8C002FEF79AFABDE8104081
:10298000FFF742BE90F89C1280F89D12042180F857
:102990009C120020704710B5D0F8C002FEF701F974
:1029A000BDE81040FFF730BE0A7802704A784270E6
:1029B0008A78CB7802EB032242800A794B7902EBCA
:1029C000032282808A79C97902EB0121C180704794
:1029D0000246002011B1C2F8B412704702207047BD
:1029E00010B5D0F8B42202241AB11268904700B989
:1029F0000024204610BD000070B50E461E4D89789B
:102A000004462970012931D894F89C0202280BD081
:102A100003280FD031462046FFF7A1FC2978204635
:102A2000BDE87040FFF784BCD9B10320616084F831
:102A30009C0209E071B16068884212D0C1B22046A0
:102A4000FFF776FC297861602046FFF7C9FF02286E
:102A50000CD006E0022084F89C0220466160FFF75B
:102A600067FC2046BDE87040FFF7ABBC314620460E
:102A7000BDE87040FFF773BC4001002010B5FFF7C0
:102A800078FF002010BD2DE9F0410A78002612F0F1
:102A9000600208D0202A01D0402A70D1D0F8B42298
:102AA000926890476DE04B78002201250A2B66D290
:102AB000DFE803F0405D6557650805652C29FFF7E1
:102AC0000BFD5EE004468888D8B9C888C8B9488834
:102AD000802816D200F07F0794F89C02032810D0BB
:102AE00084F89E7239462046FFF704FF2046FFF720
:102AF00068FC1FB1022084F89C0242E084F89C52DA
:102B00003FE020463BE0FFF777FF3AE0CB88012B20
:102B100035D190F89C32012B04D0022B02D0032B2C
:102B20002DD104E08260012200F1080116E00122AB
:102B3000011D13E090F89C22012A03D0022A01D043
:102B4000032A1CD1CA88022A19D1C560D0F8A41260
:102B500009B10321C160022200F10C01FFF724FC3E
:102B60000FE0498801290CD1C0F8A45211E090F877
:102B70009C32012B08D0022B06D0032B04D0FFF788
:102B8000EEFB3046BDE8F08149880129F9D1C0F853
:102B9000A422FFF716FCF4E72DE9F0410A460446AB
:102BA00010780027097910F060030AD0202B01D09B
:102BB000402B50D1D4F8B402114683682046984780
:102BC0008FE0C0F34110012806D05078D0B301281F
:102BD0002AD003283FD107E0D4F8B4021146836815
:102BE0002046BDE8F041184794F89C02022802D024
:102BF000032872D10AE071B380296ED02046FFF716
:102C0000AFFE80212046FFF7ABFE6AE0508838B95E
:102C100031B1802904D0D08810B92046FFF7A0FE3A
:102C20002046FFF7CEFB5CE094F89C020228E2D03D
:102C3000032852D1508898BB4806F1D02046FFF7B0
:102C400004FDEDE7FFE794F89C020026022803D07C
:102C5000032842D112E040E009B180293DD10806A5
:102C600001F07F0000EB800004EB800101D51431FE
:102C700001E001F5AA7102220E602AE0080601F0C7
:102C80000F0000EB800004EB80000AD5806920B3C0
:102C900001F07F0000EB800004EB800514350BE0B1
:102CA0001FE0D0F85801C0B101F07F0000EB8000B8
:102CB00004EB800505F5AA7541B1802906D02046B0
:102CC000FFF7B2FD10B10120286000E02E60022263
:102CD00029462046FFF768FB03E011462046FFF730
:102CE0003EFB3846BDE8F08170B5054608780C46D5
:102CF00010F0600003D0202801D0402816D195F8AC
:102D00009C02012803D0022801D003280ED120798B
:102D100001280BD8D5F8B402826828469047E1888C
:102D2000014306D12846FFF74CFB02E02846FFF797
:102D300016FB002070BD70470048704788070020D0
:102D40002DE9F0470C78002630F8243048F68F1231
:102D50001340CA78002A7DD0012A7CD0022A02D0F2
:102D6000032A7FD0012648F28002134320F8243042
:102D70000D7830F8254048F68F731C402C431443DF
:102D800020F825400D7B48F2C00C48F6BF744CF289
:102D900080074BF68F79EDB391F80080C24630F88A
:102DA000285048F280181D4045EA080520F82A50AE
:102DB000B0F8505091F80080054405EB0815B1F8C3
:102DC000088028F00108A5F80084B0F8505091F868
:102DD0000080054405EB0815B1F80A8028F00108C9
:102DE000A5F808844D78002D0D7830F825804FEA3D
:102DF00048487DD0B8F1000F07DA30F8258008EA9E
:102E0000030848EA070820F825800F7830F8275093
:102E10006D0600E02CE006D530F827501D4045EA4D
:102E20000C0520F82750CB780D78012B30F8253091
:102E300003EA040301D083F02003134320F8253074
:102E40000B7830F8231001EA0901114320F8231010
:102E5000304602E003E008E004E0BDE8F08743F418
:102E6000007380E743F4C0637DE743F480637AE74F
:102E70004D782DB3B0F850500F78054405EB071589
:102E8000CF8827F00107A5F800740F7830F8275095
:102E90006D0606D530F827501D4045EA0C0520F890
:102EA0002750CB78012B06D00B7830F82310214027
:102EB00081F02001C9E70B7830F823102140C4E7E6
:102EC000B0F850400D78044404EB0514CD8825F08B
:102ED0000105A4F80854B0F850400D78044404EB00
:102EE00005140D6904F20C4475B13E2D14D800E0B0
:102EF00030E04FEA550CED0701D00CF1010C4FF614
:102F0000FF7505EA8C2511E0258825F4F845258014
:102F1000258845F4004509E04FEA551CED0601D12E
:102F2000ACF1010C4FF4004545EA8C2525800D7865
:102F300030F82540640405D530F825401C403C435A
:102F400020F825400B7830F8231001EA090181F4BC
:102F500040517AE7B8F1000F07DA30F8258008EA27
:102F6000030848EA070820F825800F7830F8275032
:102F70006D0606D530F827501D4045EA0C0520F8AF
:102F800027500D7830F8253003EA090383F44053C5
:102F9000134320F825308EE700207047064B054884
:102FA0001B78A0F117024178D25C1143417000F008
:102FB000BFBB00003F000020670000200A480B490B
:102FC0000A4B0078083B00EB800008440849097868
:102FD000415C06482F38C068027899540178491C32
:102FE000017000F0A5BB0000660000204700002033
:102FF000670000202DE9F04391F80C804F780A78A3
:1030000048F6BF7C4BF68F7948F2800348F2C00542
:103010004CF2800648F68F74B8F1000F28D0002FCC
:1030200030F822704FEA474748D0002F05DA30F8D1
:1030300022702740374320F822700A7830F8227037
:103040007F0605D530F8227027402F4320F82270E4
:103050000D7830F825202240324320F825200C78C6
:1030600030F8242002EA0C021A4320F824201AE047
:103070007FB130F82260760605D530F82260264010
:103080002E4320F822600A7830F8221001EA0C0161
:103090000EE030F822506D0405D530F8225025405E
:1030A000354320F822500A7830F8221001EA09014D
:1030B000194320F822100020BDE8F083002F05DA24
:1030C00030F822702740374320F822700A7830F811
:1030D0002260760605D530F8226026402E4320F87F
:1030E00022600E7830F8262022402A4320F826203D
:1030F0000C7830F8242002EA09021A4320F8242030
:10310000C1E70020704700207047012120F8401FD0
:1031100000210180818001820846704730F8401FFD
:1031200021F43F410180002070470020704730B5F6
:103130000A7BB2BB4A7848F68F7548F28004C2B168
:103140000B7830F82320520607D530F823202A4088
:1031500048F2C0052A4320F82320CA78012A20D04B
:103160000A7830F8221048F6BF73194081F0200128
:1031700014E00A7830F822305B0407D530F82230AA
:103180002B404CF280052B4320F822300A7830F88F
:1031900022104BF68F73194081F44051214320F8DF
:1031A0002210002030BD10B54A780978002A48F274
:1031B000800330F8212005D048F6BF74224082F009
:1031C000100204E04BF68F74224082F480521A43BE
:1031D00020F82120002010BD2DE9F04F0D464A783F
:1031E000097B04464FF0000948F68F7A48F2800BBD
:1031F0004FF6FF774FF40048012A09D000297DD00F
:10320000E87802287BD001287AD00120BDE8F08F31
:10321000AE692869864200D9064681B1E97802295B
:103220001CD0287834F820104906B4F850102144F6
:1032300001EB001070D5A0F80C646A8928E1B3B2E4
:10324000EA882046696900F05FFAB4F850002978EE
:10325000204400EB0110A0F8046435E1296A8142A2
:1032600076D9297834F8210048F2801200EA0A0061
:10327000104324F82100286A801B2862287834F83B
:1032800020104906697876D511B1012921D027E0AF
:10329000B4F85010214401EB001000F20C404EB184
:1032A0003E2E0FD87108F20700D0491C07EA812191
:1032B000018015E0018821F4F8410180018841F482
:1032C0000041F5E77109F20600D1491E48EA812163
:1032D000EEE7B4F85020111901EB0010A0F80C64CF
:1032E0006A89B3B22046696900F00EFA6869304411
:1032F00068612969286A884206D902E0EDE00DE19B
:1033000078E1801B286202E00646C5F820906878C4
:1033100018B1012824D02BE0B7E0B4F85000297888
:10332000204400EB011000F204404EB13E2E10D8B4
:103330007108F20700D0491C07EA8121018017E0DB
:10334000018821F4F8410180018841F40041F5E74A
:1033500086E07109F20600D1491E48EA8121EDE7B5
:10336000B4F850002978204400EB0110A0F8046460
:103370002A896FE0FFE711B1012921D027E0B4F8D5
:103380005010214401EB001000F204404EB13E2EDB
:103390000FD87108F20700D0491C07EA812101808B
:1033A00015E0018821F4F8410180018841F40041D1
:1033B000F5E77109F20600D1491E48EA8121EEE7DE
:1033C000B4F85010214401EB0010A0F804642A89DD
:1033D000B3B22046696900F097F9686930446861C2
:1033E0002969286A884202D9801B286202E00646C1
:1033F000C5F82090687810B1012822D029E0B4F8EF
:1034000050002978204400EB011000F20C404EB12E
:103410003E2E0FD87108F20700D0491C07EA81211F
:10342000018016E0018821F4F8410180018841F40F
:103430000041F5E77109F20600D1491E48EA8121F1
:10344000EEE7B4F850100819297800EB0110A0F845
:103450000C646A89B3B22046696900F055F933E01B
:103460002A7834F8220048F68F63184040EA0B00AF
:1034700024F82200B4F850002A78204400EB02100F
:103480008BB2A0F804342A89E5E7A0F804642A89FD
:10349000B3B22046696900F037F9687810B10128A5
:1034A00008D011E0297834F8210048F2C00200EA7F
:1034B0000A0006E0297834F821004CF2800200EA84
:1034C0000A00104324F82100297834F8210048F636
:1034D000BF72104080F03000DFE0A96928698142A6
:1034E00002D9091AA961B6E00846C5F81890B2E0F9
:1034F000088820F4F8400880088840F400400BE079
:103500003E2876D84208C00700D0521C07EA822025
:1035100002E000BF48EA82200880B6E092B9B4F821
:1035200050002978204400EB0110296900F2044082
:1035300069B13E2913D84A08C90700D0521C07EACE
:1035400082210180687888B1012832D03AE0018870
:1035500021F4F8410180018841F40041F1E74A0972
:10356000C90600D1521E48EA8221EAE7B4F85000A9
:103570002978204400EB0110296900F20C4049B180
:103580003E290FD84A08C90700D0521C07EA8221F9
:10359000018017E0018821F4F8410180018841F49D
:1035A0000041F5E74A09C90600D1521E48EA8221C6
:1035B000EEE7B4F850100819297800EB0110298AB9
:1035C000A0F80C14E869B0B3297834F8210042045B
:1035D00001D5420603D444F24002104255D134F8DA
:1035E000210048F2C00200EA0A00104324F821003A
:1035F0004BE03CE0A9692869814202D9091AA96116
:1036000002E00846C5F818908AB9B4F850102A7834
:10361000214401EB021101F2044168B13E2813D8A4
:103620004208C30700D0521C07EA82220A80697848
:1036300089B1012921D028E00A8822F4F8420A80C1
:103640000A8842F40042F1E74209C30600D1521E43
:1036500048EA8222EAE7B4F850102A78214401EBC4
:10366000021101F20C4100287FF44AAF40E7420901
:10367000C0067FF44FAF521E4CE7B4F8502011192A
:103680002A7801EB0211A1F80C04297834F8210002
:103690004BF68F72104080F4405040EA0B0024F843
:1036A00021000020B2E50021A0F844104FF43F4172
:1036B000A0F84010002070470148FDF78CBA0000C8
:1036C000A4070020B0F844007047000010B500EBDC
:1036D00042005C0800F5806009D000BF30F8042B80
:1036E00001F8012B120A01F8012B641EF6D1DA074A
:1036F00001D00088087010BD0020704711B98021EA
:10370000A0F84C100020704710B55B1C00EB420085
:103710005B0800F5806009D011F8012B11F8014B0E
:1037200042EA042220F8042B5B1EF5D110BD0000F4
:103730000A48094900780A5C521C0A544A1F084981
:103740000978535C5B1C535401EB810205490A4420
:10375000115C491C115470473200002066000020A3
:103760006700002018020020FEE70907090E002864
:1037700004DB00F1E02080F80014704700F00F0037
:1037800000F1E02080F8141D704702E008C8121F05
:1037900008C1002AFAD170477047002001E001C13A
:1037A000121F002AFBD17047FEF702FCFCF7DEFE79
:1037B000FEF720FCFEF73AF9FEF70EFAFEF7A4F941
:1037C000FEF7D6F90021E848FDF762FFE648002140
:1037D0004838FDF75DFF00222021E448FCF7B3FEE6
:1037E000FCF74AFDE24E012220213046FCF7ABFEF9
:1037F000E04C0125DFF874A325706570290250465E
:10380000FCF79CFE08B1FEF7B5FB4FF0020884F808
:1038100001804FF480613046FCF790FE08B1FEF75E
:10382000B7FB4FF0030984F8019010213046FCF7F4
:1038300085FE08B1FEF7ACFB04276770082130460F
:10384000FCF77CFE08B1FEF7A3FB00222021C8484C
:10385000FCF779FE0122910256465046FCF773FEB2
:1038600084F80080AA4665704FF480713046FCF7FA
:1038700065FE08B1FEF78CFBDFF8F4B2454684F82C
:1038800001804FF480615846FCF758FE08B1FEF7FE
:1038900071FBC84684F8019010215846FCF74EFE93
:1038A00008B1FEF775FB67700821B148FCF746FECA
:1038B00008B1FEF76DFB4FF4806B00225946B1460C
:1038C0003046FCF740FE012204214846FCF73BFE4F
:1038D00084F80080564684F801A04FF48071484671
:1038E000FCF72CFE08B1FEF753FB65705946A04863
:1038F000FCF724FE08B1FEF74BFBC24684F80180BA
:1039000010219B48FCF71AFE08B1FEF733FB6770E5
:1039100008219748FCF712FE08B1FEF739FB002298
:103920000421C8464846FCF70EFE01220821404605
:10393000FCF709FE2770B14666704FF4807140466F
:10394000FCF7FCFD08B1FEF723FBDFF824B265703D
:103950004FF480615846FCF7F1FD08B1FEF718FB03
:10396000564684F801A01021DA465846FCF7E6FDD9
:1039700008B1FEF70DFBBB4667700821574650465D
:10398000FCF7DCFD08B1FEF7F5FA002208214046FD
:10399000FCF7D9FD01222021BA463846FCF7D3FDB9
:1039A00084F800904F4684F801904FF480714046AF
:1039B000FCF7C4FD08B1FEF7BAFAA94665704FF4EA
:1039C000806155465046FCF7B9FD08B1FEF7BEFAD6
:1039D000B246667010212E462846FCF7AFFD08B1AE
:1039E000FEF7B4FA5D4684F801B008213046FCF7D2
:1039F000A5FD08B1FEF7AAFA002220215C48FCF7D9
:103A0000A2FD0122910246464046FCF79CFD84F847
:103A10000090C846B94667704FF480713046FCF795
:103A20008DFD08B1FEF792FADFF844B184F8018009
:103A30004FF480615846FCF781FD08B1FEF777FA34
:103A4000574684F801A010215846FCF777FD08B1CD
:103A5000FEF77CFA657008215846FCF76FFD08B147
:103A6000FEF774FA4FF4806A002251463046FCF7A4
:103A70006AFD012204213046FCF765FD277084F8B9
:103A800001904FF480713046FCF758FD08B1FEF705
:103A90005DFA84F8018051465846FCF74FFD08B1A5
:103AA000FEF754FA677010215846FCF747FD08B13D
:103AB000FEF73DFA0120FCF73FFC657008215846EF
:103AC000FCF73CFD08B1FEF741FA00220421304624
:103AD000FCF739FD012208213046FCF734FD257042
:103AE00084F801904FF480713046FCF727FD08B14F
:103AF000FEF72CFA84F801805146D8465846FCF768
:103B00001DFD08B1FEF722FA6770102147464046B6
:103B1000FCF714FD08B1FEF719FA65700821384664
:103B2000FCF70CFD08B1FEF702FA0022082130462E
:103B3000FCF709FDFDF746FFFCF7D0FB4FF4005101
:103B40000D48FCF7FBFC50B10020FEF74BFA0022B9
:103B500020213046FCF7F7FCFEF73AFA40E6012058
:103B6000FEF740FA0122F3E77C0200200008014042
:103B7000000C014066000020001001400000000021
:103B8000000000000102030406070809AC3B00081E
:103B9000000000201802000090010008E03C00082E
:103BA00018020020780C00009A370008B202137C3B
:103BB0000242201A3408320322191B2065041A1805
:103BC0000411051201020408D201150405060715A7
:103BD00008090A0B150C0D0E1815101112132D14CF
:103BE0001516172912241B0839041A45041A6D04E6
:103BF0001AA10413D9231B080D0817040309041282
:103C000001298B1640830450571D020102035A2AD2
:103C10001A850117101005010906A1018501050784
:103C200019E029E7151813250175019508810295FA
:103C3000017508810395067508141A651E1114296B
:103C400065811AC02F1702A1010901A12809850267
:103C5000050919012903333D95037501331C0581BD
:103C60000322301230093109381581257F750895F6
:103C7000038106C0C01AB8FC136F021B086B041A3C
:103C8000730429F182105324F413C9211B083F0443
:103C900013552242081A770C1A0F041A1B04C11A72
:103CA000B1101AA5041ABD041A99041409022913A3
:103CB000010125C03209042A02ED15092111011460
:103CC0000122651A079212022D0507050107291A1C
:103CD00009562C691A31130A0632022A40E4000000
:04000005080000ED02
:00000001FF
